S01400005465737450726F6A656374312E7372656368
S11300000C942A000C9434000C9434000C943400A6
S11300100C9434000C9434000C9434000C9434008C
S11300200C9434000C9434000C9434000C9434007C
S11300300C9434000C9434000C9434000C9434006C
S11300400C9434000C9434000C9434000C9434005C
S11300500C94340011241FBECFE5D8E0DEBFCDBF21
S11300600E9436000C9449000C940000D09AD89A4F
S11300702FE38DE093E0215080409040E1F700C0F1
S11300800000D89883E294EF0197F1F700C00000D4
S1090090EECFF894FFCF4F
S9030000FC
