:100000000C942A000C943F000C943F000C943F0089
:100010000C943F000C943F000C943F000C943F0064
:100020000C943F000C943F000C943F000C943F0054
:100030000C943F000C943F000C943F000C943F0044
:100040000C943F000C943F000C943F000C943F0034
:100050000C943F0011241FBECFE5D8E0DEBFCDBF1A
:1000600010E0A0E6B0E0E0E1F1E002C005900D9202
:10007000A439B107D9F70E9461000C9486000C9452
:1000800000008AB188618AB98CE089B910BC80B55A
:10009000806880BD80B5866080BD08955D9BFECF81
:1000A0008CB90895CF93DF93EC018881882331F0D8
:1000B00021960E944E0089918111FBCFDF91CF9153
:1000C00008950E94410081E40E944E0082E40E9453
:1000D0004E0083E40E944E0080E690E00E945200B1
:1000E00086E890E00E94520088E890E00E9452006A
:1000F00082E990E00E9452002FE38DE093E02150CE
:1001000080409040E1F700C00000DDCFF894FFCFC1
:1001100048656C6C6F2074686572652E2054686544
:100120002074656D706572617475726520746F649A
:10013000617920697300090033382064656772654E
:0401400065000A004C
:00000001FF
