S010000050574D5F746573742E7372656301
S11300000C9434000C943E000C943E000C943E007E
S11300100C943E000C943E000C943E000C943E0064
S11300200C943E000C943E000C943E000C943E0054
S11300300C943E000C943E000C943E000C943E0044
S11300400C943E000C943E000C943E000C943E0034
S11300500C943E000C943E000C943E000C943E0024
S11300600C943E000C943E0011241FBECFEFD8E048
S1130070DEBFCDBF0E9440000C9466000C940000CB
S113008084B1866084B9E1E8F0E080818260808395
S11300908CE790E09093870080938600808188614C
S11300A08083E0E8F0E080818260808384E190E0F6
S11300B090938900809388008AE590E090938B0068
S11300C080938A00808180688083FFCFF894FFCF7B
S9030000FC
