S017000048656C6C6F5F696E746572727570742E73726563CD
S11300000C9434000C9449000C943E000C943E0073
S11300100C943E000C943E000C943E000C943E0064
S11300200C943E000C943E000C943E000C943E0054
S11300300C943E000C943E000C943E000C943E0044
S11300400C943E000C943E000C943E000C943E0034
S11300500C943E000C943E000C943E000C943E0024
S11300600C943E000C943E0011241FBECFEFD8E048
S1130070DEBFCDBF0E9440000C945B000C940000D6
S11300807894E89AE9E6F0E0808182608083209A9F
S1130090FFCF1F920F920FB60F9211248F939F934D
S11300A095B181E0892785B99F918F910F900FBEFB
S10D00B00F901F901895F894FFCFED
S9030000FC
