S01200004156525F626567696E732E7372656352
S11300000C942A000C9434000C9434000C943400A6
S11300100C9434000C9434000C9434000C9434008C
S11300200C9434000C9434000C9434000C9434007C
S11300300C9434000C9434000C9434000C9434006C
S11300400C9434000C9434000C9434000C9434005C
S11300500C94340011241FBECFE5D8E0DEBFCDBF21
S11300600E9436000C943E000C940000B89AD0987C
S1130070C89902C0C09AFCCFC098FACFF894FFCFB9
S9030000FC
