:100000000C9434000C9446000C9446000C9446006A
:100010000C9446000C9446000C9446000C94460048
:100020000C9446000C9446000C9446000C94460038
:100030000C9446000C9446000C9446000C94460028
:100040000C9446000C9446000C9446000C94460018
:100050000C9446000C9446000C9446000C94460008
:100060000C9446000C94460011241FBECFEFD8E03C
:10007000DEBFCDBF21E0A0E0B1E001C01D92A23003
:10008000B207E1F70E9448000C946A000C9400004B
:1000900085B5816085BD16BC209A21E086B58A3F72
:1000A00050F016BC8091000190910101019690934F
:1000B0000101809300018091000190910101803540
:1000C0009F4064F385B1822785B910920101109297
:0800D0000001E4CFF894FFCF1A
:00000001FF
