S01400004C43445F4144435F44454D4F2E7372656392
S11300000C942A000C9447000C9447000C9447006D
S11300100C9447000C9447000C9447000C94470040
S11300200C9447000C9447000C9447000C94470030
S11300300C9447000C9447000C9447000C94470020
S11300400C9447000C9447000C9447000C94470010
S11300500C94470011241FBECFE5D8E0DEBFCDBF0E
S113006010E0A0E6B0E0EEEEF9E002C005900D92DB
S1130070AA38B107D9F721E0AAE8B0E001C01D927F
S1130080A03FB207E1F70E94BB010C94F5040C9465
S1130090000081B3877881BB919A90980000929A6E
S11300A0000080B38695869586958295807F0000B2
S11300B092980000929A000090B300009298000079
S11300C088236CF3919881B3886781BB0895282FA6
S11300D022952F708F70611102C0909801C0909A80
S11300E00000929A92B3220F220F220F9778922B3C
S11300F092BB000092980000929A92B3880F880FE6
S1130100880F9778892B82BB0000929800000E9488
S113011049000895CF93C82F8BE49DE10197F1F72F
S113012000C0000091B3986791BB8A9A889A899A13
S113013092B3977892BB9298919890980000929A73
S1130140949A0000929800000E94490060E08C2F6D
S11301508C600E94670060E088E20E94670060E0B3
S113016080E40E94670060E080E80E946700CF910D
S113017008950F931F93CF93DF938C01FC0180812B
S1130180882309F18532A9F4E8012196F8018181D7
S11301908053883020F461E00E9467000EC061E063
S11301A085E20E94670061E0F80181810E94670096
S11301B004C061E00E946700E8018E010F5F1F4FD9
S11301C089818111DFCFDF91CF911F910F91089524
S11301D0EF92FF920F931F93CF93DF9300D000D041
S11301E01F92CDB7DEB77B01FE01319625E0DF011A
S11301F01D922A95E9F7009759F035962AE030E0E8
S1130200B9010E94CD048293862F972F0097C1F7DE
S1130210BFEFEB16FB0669F4898181111EC0FE0154
S1130220329600E010E00F5F1F4F81918823D9F3CD
S113023010C005E010E00E191F090BC0F8018191F0
S11302408F0161E0805D0E9467000E151F05B1F704
S113025011C0053011051CF00DC000E010E081E074
S113026090E08C0F9D1F080F191F7E0196E0E90E88
S1130270F11CE4CF0F900F900F900F900F90DF912F
S1130280CF911F910F91FF90EF9008954F925F923D
S11302906F927F92AF92BF92CF92DF92EF92FF92D2
S11302A00F931F93CF936B017C015A0189010E9424
S11302B048032B013C0180E090E00E9477039B01FE
S11302C0AC01C701B6010E9469026B017C010115F2
S11302D0110589F0C0E020E030E040E251E4C701BC
S11302E0B6010E9405046B017C01CF5F2C2F30E026
S11302F02017310780F3B501C2010E94E80080E6AF
S113030090E00E94B900C701B6010E944803DC01D5
S1130310CB01B8010E94E800CF911F910F91FF908B
S1130320EF90DF90CF90BF90AF907F906F905F90F1
S11303304F900895883290F4613041F028F0623093
S113034039F0633039F007C0806805C0806C03C0A1
S1130350846901C0846D60E00E9467000895379A43
S1130360319A3E9A0895389A369A3499FECF349A3F
S113037084B195B1089580E00E948A0060E080E035
S11303800E949A0182E690E00E94B90061E080E058
S11303900E949A0182E690E00E94B90060E080E049
S11303A00E949A0183E790E00E94B9000E94AF0185
S11303B00F2EF4E98F2EF0E09F2EF02D00EF11E0C8
S11303C00F2EFEEAAF2EB12CF02D10929300109256
S11303D09200C0E0D0E00E94B301CC0FDD1FCC56E8
S11303E0DF4F99838883C0919200D0919300219626
S11303F0D0939300C0939200CE3AD10564F3409019
S11304008A0050908B0060908C0070908D00E40105
S113041068817981725069937993072E000C880B57
S1130420990B0E94790324EA30EF40EB52E40E94D6
S1130430050420E030EC4FE754E40E94D6026B013F
S11304407C019B01AC010E9405049B01AC01C3012A
S1130450B2010E946A022B013C01C017D107C1F608
S1130460C0928E00D0928F00E0929000F0929100A2
S1130470B0929300A092920020E030E04EE253E468
S1130480C301B2010E94D6020E94780460938A00DC
S113049070938B0080938C0090938D0061E080E0DA
S11304A00E949A0160918A0070918B0080918C0067
S11304B090918D0021E030E042E050E00E9446013E
S11304C061E086E00E949A0184E890E00E94B9000D
S11304D07CCF5058BB27AA270E9481020C94CB03DF
S11304E00E94BD0338F00E94C40320F039F49F3FFA
S11304F019F426F40C94BA030EF4E095E7FB0C947B
S1130500B403E92F0E94DC0358F3BA176207730798
S11305108407950720F079F4A6F50C94FE030EF4F5
S1130520E0950B2EBA2FA02D0B01B90190010C01FF
S1130530CA01A0011124FF27591B99F0593F50F417
S1130540503E68F11A16F040A22F232F342F44276F
S1130550585FF3CF469537952795A795F040539567
S1130560C9F77EF41F16BA0B620B730B840BBAF037
S11305709150A1F0FF0FBB1F661F771F881FC2F7A2
S11305800EC0BA0F621F731F841F48F487957795B6
S11305906795B795F7959E3F08F0B0CF9395880F70
S11305A008F09927EE0F9795879508950E94EA021F
S11305B00C94CB030E94C40358F00E94BD0340F086
S11305C029F45F3F29F00C94B40351110C94FF03F8
S11305D00C94BA030E94DC0368F39923B1F3552306
S11305E091F3951B550BBB27AA2762177307840742
S11305F038F09F5F5F4F220F331F441FAA1FA9F3D8
S113060035D00E2E3AF0E0E832D091505040E695C5
S1130610001CCAF72BD0FE2F29D0660F771F881F26
S1130620BB1F261737074807AB07B0E809F0BB0B19
S1130630802DBF01FF2793585F4F3AF09E3F51052D
S113064078F00C94B4030C94FF035F3FE4F3983EFA
S1130650D4F3869577956795B795F7959F5FC9F716
S1130660880F911D9695879597F90895E1E0660F97
S1130670771F881FBB1F621773078407BA0720F010
S1130680621B730B840BBA0BEE1F88F7E095089579
S11306900E94E40388F09F5798F0B92F9927B75127
S11306A0B0F0E1F0660F771F881F991F1AF0BA9512
S11306B0C9F714C0B13091F00E94FE03B1E008956F
S11306C00C94FE03672F782F8827B85F39F0B93F61
S11306D0CCF3869577956795B395D9F73EF49095C5
S11306E08095709561957F4F8F4F9F4F0895E89443
S11306F009C097FB3EF490958095709561957F4F66
S11307008F4F9F4F9923A9F0F92F96E9BB27939513
S1130710F695879577956795B795F111F8CFFAF423
S1130720BB0F11F460FF1BC06F5F7F4F8F4F9F4F54
S113073016C0882311F096E911C0772321F09EE8B2
S1130740872F762F05C0662371F096E8862F70E018
S113075060E02AF09A95660F771F881FDAF7880FF2
S11307609695879597F9089597F99F6780E870E0C3
S113077060E008959FEF80EC089500240A94161613
S1130780170618060906089500240A94121613067B
S1130790140605060895092E0394000C11F4882309
S11307A052F0BB0F40F4BF2B11F460FF04C06F5F25
S11307B07F4F8F4F9F4F089557FD9058440F551FFB
S11307C059F05F3F71F04795880F97FB991F61F0CF
S11307D09F3F79F087950895121613061406551F46
S11307E0F2CF4695F1DF08C0161617061806991FB2
S11307F0F1CF86957105610508940895E894BB27A7
S113080066277727CB0197F908950E9418040C9462
S1130810CB030E94BD0338F00E94C40320F095234B
S113082011F00C94B4030C94BA0311240C94FF0338
S11308300E94DC0370F3959FC1F3950F50E0551FA0
S1130840629FF001729FBB27F00DB11D639FAA2721
S1130850F00DB11DAA1F649F6627B00DA11D661F70
S1130860829F2227B00DA11D621F739FB00DA11D91
S1130870621F839FA00D611D221F749F3327A00D4B
S1130880611D231F849F600D211D822F762F6A2FE7
S113089011249F5750409AF0F1F088234AF0EE0F4C
S11308A0FF1FBB1F661F771F881F91505040A9F779
S11308B09E3F510580F00C94B4030C94FF035F3FFA
S11308C0E4F3983ED4F3869577956795B795F795B5
S11308D0E7959F5FC1F7FE2B880F911D969587952D
S11308E097F9089519F416F40C94BA030C94B80407
S11308F00E94E403B8F39923C9F3B6F39F57550B49
S113090087FF0E94C6040024A0E640EA90018058B4
S11309105695979528F4805C660F771F881F20F002
S113092026173707480730F4621B730B840B202902
S113093031294A2BA69517940794202531254A2757
S113094058F7660F771F881F20F0261737074807C8
S113095030F4620B730B840B200D311D411DA095E7
S113096081F7B901842F9158880F9695879508953A
S11309709F3F31F0915020F4879577956795B7950F
S1130980880F911D9695879597F908959150504039
S1130990660F771F881FD2F7089597FB072E16F46A
S11309A0009407D077FD09D00E94E10407FC05D02C
S11309B03EF4909581959F4F0895709561957F4F72
S11309C00895AA1BBB1B51E107C0AA1FBB1FA61792
S11309D0B70710F0A61BB70B881F991F5A95A9F7E4
S11109E080959095BC01CD010895F894FFCF49
S11309EE2E00202020202020202020202020202007
S11309FE202000566F6C74616765205265616469CE
S10D0A0E6E673A00566F6C747300B3
S9030000FC
