S01A0000566F6C746D657465725F4F686D4D657465722E73726563C8
S11300000C942A000C9447000C9447000C9447006D
S11300100C9447000C9447000C9447000C94470040
S11300200C9447000C9447000C9447000C94470030
S11300300C9447000C9447000C9447000C94470020
S11300400C9447000C9447000C9447000C94470010
S11300500C94470011241FBECFE5D8E0DEBFCDBF0E
S113006010E0A0E6B0E0EAEEFCE002C005900D92DC
S1130070A43DB107D9F722E0A4EDB0E001C01D9280
S1130080A634B207E1F70E94D3010C9473060C94D2
S1130090000081B3877881BB919A90980000929A6E
S11300A0000080B38695869586958295807F0000B2
S11300B092980000929A000090B300009298000079
S11300C088236CF3919881B3886781BB0895282FA6
S11300D022952F708F70611102C0909801C0909A80
S11300E00000929A92B3220F220F220F9778922B3C
S11300F092BB000092980000929A92B3880F880FE6
S1130100880F9778892B82BB0000929800000E9488
S113011049000895CF93C82F8BE49DE10197F1F72F
S113012000C0000091B3986791BB8A9A889A899A13
S113013092B3977892BB9298919890980000929A73
S1130140949A0000929800000E94490060E08C2F6D
S11301508C600E94670060E088E20E94670060E0B3
S113016080E40E94670060E080E80E946700CF910D
S113017008950F931F93CF93DF938C01FC0180812B
S1130180882309F18532A9F4E8012196F8018181D7
S11301908053883020F461E00E9467000EC061E063
S11301A085E20E94670061E0F80181810E94670096
S11301B004C061E00E946700E8018E010F5F1F4FD9
S11301C089818111DFCFDF91CF911F910F91089524
S11301D0EF92FF920F931F93CF93DF9300D000D041
S11301E01F92CDB7DEB77B01FE01319625E0DF011A
S11301F01D922A95E9F7009759F035962AE030E0E8
S1130200B9010E944B068293862F972F0097C1F75E
S1130210BFEFEB16FB0669F4898181111EC0FE0154
S1130220329600E010E00F5F1F4F81918823D9F3CD
S113023010C005E010E00E191F090BC0F8018191F0
S11302408F0161E0805D0E9467000E151F05B1F704
S113025011C0053011051CF00DC000E010E081E074
S113026090E08C0F9D1F080F191F7E0196E0E90E88
S1130270F11CE4CF0F900F900F900F900F90DF912F
S1130280CF911F910F91FF90EF9008954F925F923D
S11302906F927F92AF92BF92CF92DF92EF92FF92D2
S11302A00F931F93CF936B017C015A0189010E9424
S11302B0C6042B013C0180E090E00E94F5049B0100
S11302C0AC01C701B6010E94E7036B017C01011573
S11302D0110589F0C0E020E030E040E251E4C701BC
S11302E0B6010E9483056B017C01CF5F2C2F30E0A7
S11302F02017310780F3B501C2010E94E80080E6AF
S113030090E00E94B900C701B6010E94C604DC0156
S1130310CB01B8010E94E800CF911F910F91FF908B
S1130320EF90DF90CF90BF90AF907F906F905F90F1
S11303304F900895883290F4613041F028F0623093
S113034039F0633039F007C0806805C0806C03C0A1
S1130350846901C0846D60E00E946700089560E0D4
S113036080E00E949A0182E690E00E94B90061E078
S113037080E00E949A0182E690E00E94B90008950C
S1130380379A319A3E9A0895369A3499FECF349A20
S113039084B195B10895389A369A3499FECF349A37
S11303A084B195B10895CF93DF9300D000D0CDB739
S11303B0DEB781E090E09093DF008093DE0080E080
S11303C00E948A000E94AF0160E080E00E949A01CE
S11303D083E790E00E94B9000E94C00117BAEE249E
S11303E0E394F12C02E010E086B396B39170D92E19
S11303F081FF28C08091DE009091DF00019769F4AD
S11304001093DF000093DE0060E080E00E949A0118
S113041084E890E00E94B9000CC0F092DF00E09202
S1130420DE0060E080E00E949A0183E790E00E9491
S1130430B9002FE986E891E0215080409040E1F72F
S113044000C00000DD2081F20E94AF01AFE9B6E8F0
S1130450E1E0A150B040E040E1F700C0000080912D
S1130460DE009091DF00019709F0A1C060E080E018
S11304700E949A0185E990E00E94B90008EE10E01C
S11304800F2EF4E4AF2EF2E0BF2EF02D0F2EFEEA75
S11304908F2E912CF02D1092DD001092DC00E12CB7
S11304A0F12C0E94C4019701220F331F28513F4FA2
S11304B0D9018D939C93E090DC00F090DD00BFEFB8
S11304C0EB1AFB0AF092DD00E092DC00EEEAEE1695
S11304D0F1043CF34090D4005090D5006090D600D5
S11304E07090D7001801D1016D917C917250F10187
S11304F0619371931F01072E000C880B990B0E94C6
S1130500F70424EA30EF40EB52E40E94830520E034
S113051030EC4FE754E40E9454046B017C019B01CE
S1130520AC010E9483059B01AC01C301B2010E948E
S1130530E8032B013C012A143B04A9F6C092D8001D
S1130540D092D900E092DA00F092DB009092DD00C4
S11305508092DC0020E030E04EE253E4C301B201BB
S11305600E9454040E94F6056093D4007093D50051
S11305708093D6009093D70061E080E00E949A01B6
S11305806091D4007091D5008091D6009091D700ED
S113059021E030E042E050E00E94460161E086E064
S11305A00E949A0180EA90E00E94B90074CF60E052
S11305B080E00E949A0186EA90E00E94B9000F2E22
S11305C0412C512CF8EC6F2EF2E47F2EF02D0F2EDF
S11305D0812C912CF0E2AF2EF1E4BF2EF02D86B3E6
S11305E096B326B336B382FF13C04092E000509214
S11305F0E1006092E2007092E3000E94CB019093CC
S11306004502809344028F3FF3E09F07C9F5CAC0B7
S113061093FF13C08092E0009092E100A092E20068
S1130620B092E3000E94CB01909345028093440270
S11306308F3F23E0920721F5B5C024FF0DC080E071
S113064090E0AAE7B4E48093E0009093E100A093E3
S1130650E200B093E300AFC035FF09C04092E00070
S11306605092E1006092E2007092E300A4C061E065
S113067080E00E949A0184EB90E00E94B900AFCF21
S1130680BC01990F880B990B0E94F7046B017C0144
S11306902091E0003091E1004091E2005091E300AC
S11306A00E94830569837A838B839C83A7019601C7
S11306B060E070EC8FE794E40E94E7039B01AC01D7
S11306C069817A818B819C810E9454046093E40047
S11306D07093E5008093E6009093E70061E080E08A
S11306E00E949A016091E4007091E5008091E60017
S11306F09091E70022E030E044E050E00E9446019F
S113070067E080E00E949A0185EC90E00E94B900C5
S113071066CFBC01990F880B990B0E94F7046B01FB
S11307207C012091E0003091E1004091E200509181
S1130730E3000E94830569837A838B839C83A701EA
S1130740960160E070EC8FE794E40E94E7039B015C
S1130750AC0169817A818B819C810E9454046093ED
S1130760E4007093E5008093E6009093E70061E075
S113077080E00E949A016091E4007091E50080910C
S1130780E6009091E70022E030E044E050E00E946F
S1130790460167E080E00E949A018CEC90E00E94A0
S11307A0B9001DCF61E080E00E949A0184EB90E0E3
S11307B00E94B90014CF0E94CB019093450280930C
S11307C044028F3FA3E09A0709F0A3CFEBCF505820
S11307D0BB27AA270E94FF030C9449050E943B05EE
S11307E038F00E94420520F039F49F3F19F426F4B2
S11307F00C9438050EF4E095E7FB0C943205E92FD0
S11308000E945A0558F3BA176207730784079507BD
S113081020F079F4A6F50C947C050EF4E0950B2EEB
S1130820BA2FA02D0B01B90190010C01CA01A0013E
S11308301124FF27591B99F0593F50F4503E68F199
S11308401A16F040A22F232F342F4427585FF3CFDA
S1130850469537952795A795F0405395C9F77EF4AB
S11308601F16BA0B620B730B840BBAF09150A1F0F4
S1130870FF0FBB1F661F771F881FC2F70EC0BA0F7A
S1130880621F731F841F48F4879577956795B79502
S1130890F7959E3F08F0B0CF9395880F08F09927FD
S11308A0EE0F9795879508950E9468040C94490566
S11308B00E94420558F00E943B0540F029F45F3F36
S11308C029F00C94320551110C947D050C943805D3
S11308D00E945A0568F39923B1F3552391F3951BAC
S11308E0550BBB27AA2762177307840738F09F5F4D
S11308F05F4F220F331F441FAA1FA9F335D00E2EBA
S11309003AF0E0E832D091505040E695001CCAF726
S11309102BD0FE2F29D0660F771F881FBB1F2617E9
S113092037074807AB07B0E809F0BB0B802DBF01C0
S1130930FF2793585F4F3AF09E3F510578F00C948F
S113094032050C947D055F3FE4F3983ED4F386951D
S113095077956795B795F7959F5FC9F7880F911DB0
S11309609695879597F90895E1E0660F771F881F9C
S1130970BB1F621773078407BA0720F0621B730B4F
S1130980840BBA0BEE1F88F7E09508950E94620568
S113099088F09F5798F0B92F9927B751B0F0E1F03C
S11309A0660F771F881F991F1AF0BA95C9F714C0EC
S11309B0B13091F00E947C05B1E008950C947C055F
S11309C0672F782F8827B85F39F0B93FCCF3869525
S11309D077956795B395D9F73EF490958095709582
S11309E061957F4F8F4F9F4F0895E89409C097FBFF
S11309F03EF490958095709561957F4F8F4F9F4FF2
S1130A009923A9F0F92F96E9BB279395F695879535
S1130A1077956795B795F111F8CFFAF4BB0F11F4F8
S1130A2060FF1BC06F5F7F4F8F4F9F4F16C088239F
S1130A3011F096E911C0772321F09EE8872F762FD5
S1130A4005C0662371F096E8862F70E060E02AF016
S1130A509A95660F771F881FDAF7880F9695879502
S1130A6097F9089597F99F6780E870E060E008952A
S1130A709FEF80EC089500240A94161617061806B2
S1130A800906089500240A9412161306140605068E
S1130A900895092E0394000C11F4882352F0BB0F1F
S1130AA040F4BF2B11F460FF04C06F5F7F4F8F4F82
S1130AB09F4F089557FD9058440F551F59F05F3FBD
S1130AC071F04795880F97FB991F61F09F3F79F06C
S1130AD087950895121613061406551FF2CF4695EE
S1130AE0F1DF08C0161617061806991FF1CF869570
S1130AF07105610508940895E894BB276627772754
S1130B00CB0197F908950E9496050C9449050E941B
S1130B103B0538F00E94420520F0952311F00C9417
S1130B2032050C94380511240C947D050E945A0555
S1130B3070F3959FC1F3950F50E0551F629FF0012C
S1130B40729FBB27F00DB11D639FAA27F00DB11D45
S1130B50AA1F649F6627B00DA11D661F829F2227CE
S1130B60B00DA11D621F739FB00DA11D621F839F55
S1130B70A00D611D221F749F3327A00D611D231F2B
S1130B80849F600D211D822F762F6A2F11249F5779
S1130B9050409AF0F1F088234AF0EE0FFF1FBB1F7C
S1130BA0661F771F881F91505040A9F79E3F51053B
S1130BB080F00C9432050C947D055F3FE4F3983E7D
S1130BC0D4F3869577956795B795F795E7959F5FE5
S1130BD0C1F7FE2B880F911D9695879597F9089577
S1130BE019F416F40C9438050C9436060E94620528
S1130BF0B8F39923C9F3B6F39F57550B87FF0E94A7
S1130C0044060024A0E640EA900180585695979542
S1130C1028F4805C660F771F881F20F0261737079B
S1130C20480730F4621B730B840B202931294A2BAB
S1130C30A69517940794202531254A2758F7660F5F
S1130C40771F881F20F026173707480730F4620BF8
S1130C50730B840B200D311D411DA09581F7B90143
S1130C60842F9158880F9695879508959F3F31F06A
S1130C70915020F4879577956795B795880F911DC6
S1130C809695879597F9089591505040660F771F70
S1130C90881FD2F7089597FB072E16F4009407D007
S1130CA077FD09D00E945F0607FC05D03EF49095BD
S1130CB081959F4F0895709561957F4F0895AA1B64
S1130CC0BB1B51E107C0AA1FBB1FA617B70710F033
S1130CD0A61BB70B881F991F5A95A9F78095909565
S10D0CE0BC01CD010895F894FFCF84
S1130CEA2E00202020202020202020202020202008
S1130CFA2020003C202020566F6C746167652020F8
S1130D0A20203E003C2020205265736973746F7260
S1130D1A2020203E00566F6C61746765203A2000DB
S1130D2A566F6C747300526573697374616E63658C
S1130D3A203A20003120202020202020202020209A
S1130D4A20202020004B204F686D730020204F681C
S1070D5A6D730000B1
S9030000FC
