:100000000C9434000C9451000C9451000C94510049
:100010000C9451000C9451000C9451000C9451001C
:100020000C9451000C9451000C9451000C9451000C
:100030000C9451000C9462020C9451000C945100E9
:100040000C9451000C9451000C9451000C945100EC
:100050000C9451000C9451000C9451000C945100DC
:100060000C9451000C94510011241FBECFEFD8E026
:10007000DEBFCDBF11E0A0E0B1E0E2E5F6E002C0F6
:1000800005900D92A032B107D9F721E0A0E2B1E0CE
:1000900001C01D92A832B207E1F70E945B020C94E6
:1000A00027030C9400008AB187788AB9599A589826
:1000B00000005A9A000089B18695869586958295AA
:1000C000807F00005A9800005A9A000099B1000001
:1000D0005A98000088236CF359988AB188678AB9C6
:1000E0000895282F22952F708F70611102C05898A3
:1000F00001C0589A00005A9A9BB1220F220F220F7A
:100100009778922B9BB900005A9800005A9A9BB19D
:10011000880F880F880F9778892B8BB900005A9821
:1001200000000E9453000895CF93C82F8BE49DE1F7
:100130000197F1F700C000009AB198679AB9529AF6
:10014000509A519A9BB197789BB95A985998589858
:1001500000005A9A5C9A00005A9800000E945300CE
:1001600060E08C2F8C600E94710060E088E20E9449
:10017000710060E080E40E94710060E080E80E940D
:100180007100CF9108950F931F93CF93DF938C014C
:10019000FC018081882309F18532A9F4E8012196C8
:1001A000F80181818053883020F461E00E94710061
:1001B0000EC061E085E20E94710061E0F80181817A
:1001C0000E94710004C061E00E947100E8018E018C
:1001D0000F5F1F4F89818111DFCFDF91CF911F9179
:1001E0000F910895EF92FF920F931F93CF93DF9398
:1001F00000D000D01F92CDB7DEB77B01FE01319653
:1002000025E0DF011D922A95E9F7009759F0359610
:100210002AE030E0B9010E94FF028293862F972FD7
:100220000097C1F7BFEFEB16FB0669F489818111D6
:100230001EC0FE01329600E010E00F5F1F4F81915B
:100240008823D9F310C005E010E00E191F090BC078
:10025000F80181918F0161E0805D0E9471000E15AF
:100260001F05B1F711C0053011051CF00DC000E0ED
:1002700010E081E090E08C0F9D1F080F191F7E0198
:1002800096E0E90EF11CE4CF0F900F900F900F90C5
:100290000F90DF91CF911F910F91FF90EF900895F4
:1002A000883290F4613041F028F0623039F06330E8
:1002B00039F007C0806805C0806C03C0846901C044
:1002C000846D60E00E947100089584B1877884B9DC
:1002D000299A289800002A9A000083B1869586956D
:1002E00086958295807F00002A9800002A9A000057
:1002F00093B100002A98000088236CF3299884B1F8
:10030000886784B90895282F22952F708F70611106
:1003100002C0289801C0289A00002A9A95B1220F9D
:10032000220F220F9778922B95B900002A9800008F
:100330002A9A95B1880F880F880F9778892B85B9ED
:1003400000002A9800000E9465010895CF93C82FED
:100350008BE49DE10197F1F700C0000094B198672C
:1003600094B9229A209A219A95B1977895B92A98AA
:100370002998289800002A9A2C9A00002A980000B0
:100380000E94650160E08C2F8C600E94830160E018
:1003900088E20E94830160E080E40E94830160E0C3
:1003A00080E80E948301CF9108950F931F93CF930C
:1003B000DF938C01FC018081882309F18532A9F447
:1003C000E8012196F80181818053883020F461E0B2
:1003D0000E9483010EC061E085E20E94830161E01A
:1003E000F80181810E94830104C061E00E948301C1
:1003F000E8018E010F5F1F4F89818111DFCFDF91EF
:10040000CF911F910F910895883290F4613041F09F
:1004100028F0623039F0633039F007C0806805C0D9
:10042000806C03C0846901C0846D60E00E94830118
:100430000895E1E8F0E08081826080838CE790E0BD
:100440009093870080938600808188618083E0E8B4
:10045000F0E08081826080837894EFE6F0E0808134
:1004600081608083089580E00E94940060E081E0D4
:100470000E94710060E080E00E94500180E091E005
:100480000E94C30061E080E00E9450018EE091E094
:100490000E94C300089580E00E94A60160E081E010
:1004A0000E94830160E080E00E94040287E191E005
:1004B0000E94D50108950E9433020E944B020E94BF
:1004C0001902FFCF1F920F920FB60F9211242F9394
:1004D0003F934F935F936F937F938F939F93AF93CC
:1004E000BF93EF93FF938091240190912501019692
:1004F0009093250180932401883E93400CF46EC0B4
:100500008091260190912701019690932701809375
:1005100026011092250110922401CC970CF452C0B0
:1005200010922701109226018091220190912301BF
:100530000196909323018093220161E086E00E945E
:10054000500162E070E080912601909127010E94A5
:10055000F2008091220190912301CC9734F1109206
:100560002301109222018091200190912101019696
:10057000909321018093200161E080E00E9450016E
:1005800062E070E080912001909121010E94F200D0
:1005900061E083E00E94500162E070E080912201FE
:1005A000909123010E94F20019C061E083E00E9453
:1005B000500162E070E080912201909123010E943D
:1005C000F2000CC061E086E00E94500162E070E041
:1005D00080912601909127010E94F200FF91EF91F6
:1005E000BF91AF919F918F917F916F915F914F914B
:1005F0003F912F910F900FBE0F901F90189597FB72
:10060000072E16F4009407D077FD09D00E9413033B
:1006100007FC05D03EF4909581959F4F0895709505
:1006200061957F4F0895AA1BBB1B51E107C0AA1F0C
:10063000BB1FA617B70710F0A61BB70B881F991F83
:100640005A95A9F780959095BC01CD010895F8942D
:02065000FFCFDA
:100652004469676974616C20436C6F636B0030306E
:100662003A30303A30300057656C636F6D65000088
:00000001FF
