:100000000C942A000C9434000C9434000C943400AA
:100010000C9434000C9434000C9434000C94340090
:100020000C9434000C9434000C9434000C94340080
:100030000C9434000C9434000C9434000C94340070
:100040000C9434000C9434000C9434000C94340060
:100050000C94340011241FBECFE5D8E0DEBFCDBF25
:100060000E9436000C9452000C94000087B3866006
:1000700087BB8EB582608EBD83EC99E097BD86BD4F
:100080008EB588618EBD8FB582608FBD84EF91E0A3
:100090009BBD8ABD8AE590E099BD88BD8FB580681B
:0800A0008FBDFFCFF894FFCFE4
:00000001FF
